{
  "contractName": "DMooze",
  "abi": [
    {
      "anonymous": false,
      "inputs": [
        {
          "indexed": false,
          "internalType": "address",
          "name": "addr",
          "type": "address"
        },
        {
          "indexed": false,
          "internalType": "uint256",
          "name": "id",
          "type": "uint256"
        },
        {
          "indexed": false,
          "internalType": "uint256",
          "name": "time",
          "type": "uint256"
        }
      ],
      "name": "createEvent",
      "type": "event"
    },
    {
      "anonymous": false,
      "inputs": [
        {
          "indexed": false,
          "internalType": "address",
          "name": "from",
          "type": "address"
        },
        {
          "indexed": false,
          "internalType": "uint256",
          "name": "to",
          "type": "uint256"
        },
        {
          "indexed": false,
          "internalType": "uint256",
          "name": "amount",
          "type": "uint256"
        }
      ],
      "name": "sponsorEvent",
      "type": "event"
    },
    {
      "anonymous": false,
      "inputs": [
        {
          "indexed": false,
          "internalType": "uint256",
          "name": "id",
          "type": "uint256"
        },
        {
          "indexed": false,
          "internalType": "address",
          "name": "to",
          "type": "address"
        },
        {
          "indexed": false,
          "internalType": "uint256",
          "name": "amount",
          "type": "uint256"
        },
        {
          "indexed": false,
          "internalType": "string",
          "name": "description",
          "type": "string"
        }
      ],
      "name": "withdrawEvent",
      "type": "event"
    },
    {
      "constant": true,
      "inputs": [
        {
          "internalType": "uint256",
          "name": "",
          "type": "uint256"
        }
      ],
      "name": "Projects",
      "outputs": [
        {
          "internalType": "address",
          "name": "addr",
          "type": "address"
        },
        {
          "internalType": "uint256",
          "name": "createdTime",
          "type": "uint256"
        },
        {
          "internalType": "uint256",
          "name": "currMoney",
          "type": "uint256"
        }
      ],
      "payable": false,
      "stateMutability": "view",
      "type": "function"
    },
    {
      "constant": false,
      "inputs": [
        {
          "internalType": "uint256",
          "name": "id",
          "type": "uint256"
        },
        {
          "internalType": "uint256",
          "name": "time",
          "type": "uint256"
        }
      ],
      "name": "create",
      "outputs": [],
      "payable": false,
      "stateMutability": "nonpayable",
      "type": "function"
    },
    {
      "constant": false,
      "inputs": [
        {
          "internalType": "uint256",
          "name": "id",
          "type": "uint256"
        },
        {
          "internalType": "uint256",
          "name": "amount",
          "type": "uint256"
        }
      ],
      "name": "sponsor",
      "outputs": [],
      "payable": true,
      "stateMutability": "payable",
      "type": "function"
    },
    {
      "constant": false,
      "inputs": [
        {
          "internalType": "uint256",
          "name": "id",
          "type": "uint256"
        },
        {
          "internalType": "uint256",
          "name": "amount",
          "type": "uint256"
        },
        {
          "internalType": "string",
          "name": "description",
          "type": "string"
        }
      ],
      "name": "withdraw",
      "outputs": [],
      "payable": true,
      "stateMutability": "payable",
      "type": "function"
    }
  ],
  "bytecode": "0x608060405262278d0060005534801561001757600080fd5b50610a70806100276000396000f3fe60806040526004361061003f5760003560e01c806321b2416c14610044578063369c681b146100cd578063947fdb8b1461019c5780639f7b4579146101d4575b600080fd5b34801561005057600080fd5b5061007d6004803603602081101561006757600080fd5b8101908080359060200190929190505050610219565b604051808473ffffffffffffffffffffffffffffffffffffffff1673ffffffffffffffffffffffffffffffffffffffff168152602001838152602001828152602001935050505060405180910390f35b61019a600480360360608110156100e357600080fd5b8101908080359060200190929190803590602001909291908035906020019064010000000081111561011457600080fd5b82018360208201111561012657600080fd5b8035906020019184600183028401116401000000008311171561014857600080fd5b91908080601f016020809104026020016040519081016040528093929190818152602001838380828437600081840152601f19601f820116905080830192505050505050509192919290505050610263565b005b6101d2600480360360408110156101b257600080fd5b81019080803590602001909291908035906020019092919050505061061b565b005b3480156101e057600080fd5b50610217600480360360408110156101f757600080fd5b81019080803590602001909291908035906020019092919050505061084b565b005b60016020528060005260406000206000915090508060000160009054906101000a900473ffffffffffffffffffffffffffffffffffffffff16908060010154908060020154905083565b8282826001600084815260200190815260200160002060000160009054906101000a900473ffffffffffffffffffffffffffffffffffffffff1673ffffffffffffffffffffffffffffffffffffffff163373ffffffffffffffffffffffffffffffffffffffff1614610320576040517f08c379a0000000000000000000000000000000000000000000000000000000008152600401808060200182810382526031815260200180610a0b6031913960400191505060405180910390fd5b4260005460016000868152602001908152602001600020600101540110610392576040517f08c379a00000000000000000000000000000000000000000000000000000000081526004018080602001828103825260278152602001806109bd6027913960400191505060405180910390fd5b6001600084815260200190815260200160002060020154821115610401576040517f08c379a00000000000000000000000000000000000000000000000000000000081526004018080602001828103825260278152602001806109e46027913960400191505060405180910390fd5b604051806000019050604051809103902081805190602001201415610471576040517f08c379a000000000000000000000000000000000000000000000000000000000815260040180806020018281038252603281526020018061098b6032913960400191505060405180910390fd5b8134146104e6576040517f08c379a000000000000000000000000000000000000000000000000000000000815260040180806020018281038252601a8152602001807f496e636f727265637420616d6f756e74206f662065746865722e00000000000081525060200191505060405180910390fd5b60003390508073ffffffffffffffffffffffffffffffffffffffff166108fc879081150290604051600060405180830381858888f19350505050158015610531573d6000803e3d6000fd5b507f16c9ee40f82cc88e2ed37a88c7614e7d404ad576727642b7d1cec2f321ab9b5c87338888604051808581526020018473ffffffffffffffffffffffffffffffffffffffff1673ffffffffffffffffffffffffffffffffffffffff16815260200183815260200180602001828103825283818151815260200191508051906020019080838360005b838110156105d55780820151818401526020810190506105ba565b50505050905090810190601f1680156106025780820380516001836020036101000a031916815260200191505b509550505050505060405180910390a150505050505050565b81816000600160008481526020019081526020016000206001015414156106aa576040517f08c379a000000000000000000000000000000000000000000000000000000000815260040180806020018281038252601b8152602001807f546869732070726f6a65637420646f65736e27742065786973742e000000000081525060200191505060405180910390fd5b4260005460016000858152602001908152602001600020600101540111610739576040517f08c379a000000000000000000000000000000000000000000000000000000000815260040180806020018281038252601c8152602001807f546869732070726f6a656374206973206f7574206f6620646174652e0000000081525060200191505060405180910390fd5b8034146107ae576040517f08c379a000000000000000000000000000000000000000000000000000000000815260040180806020018281038252601a8152602001807f496e636f727265637420616d6f756e74206f662065746865722e00000000000081525060200191505060405180910390fd5b8260016000868152602001908152602001600020600201600082825401925050819055507fc9267b7a5902c0a00485720c99b0f80927bec47fdca20804cf41c3192ca96c61338585604051808473ffffffffffffffffffffffffffffffffffffffff1673ffffffffffffffffffffffffffffffffffffffff168152602001838152602001828152602001935050505060405180910390a150505050565b81600060016000838152602001908152602001600020600101541461086f57600080fd5b60405180606001604052803373ffffffffffffffffffffffffffffffffffffffff16815260200183815260200160008152506001600085815260200190815260200160002060008201518160000160006101000a81548173ffffffffffffffffffffffffffffffffffffffff021916908373ffffffffffffffffffffffffffffffffffffffff16021790555060208201518160010155604082015181600201559050507fb06bcad05c7f2f8483fd74a053b941444b2b44539d95a6217335b52b891d619a338484604051808473ffffffffffffffffffffffffffffffffffffffff1673ffffffffffffffffffffffffffffffffffffffff168152602001838152602001828152602001935050505060405180910390a150505056fe546f207769746864726177206d6f6e65792c206465736372697074696f6e2073686f756c642062652070726f76696465642e546869732070726f6a656374206973207374696c6c20696e2073706f6e736f722070686173652e546869732070726f6a65637420646f65736e2774206861766520656e6f756768206d6f6e65792e4f6e6c7920746869732070726f6a6563742773206f776e65722063616e20776974686472617720746865206d6f6e65792ea265627a7a72315820020086f5aa9be28a399d2355847e639fd35b63d10de818fa4cbc4a57033d735d64736f6c63430005100032",
  "source": "// SPDX-License-Identifier: GPL-3.0\n\npragma solidity >=0.4.22 <0.9.0;\n\ncontract DMooze {\n\n    uint256 MONTH = 86400 * 30;\n\n    struct Project {\n        address addr;\n        uint256 createdTime;\n        uint256 currMoney;\n    }\n\n    mapping(uint256 => Project) public Projects;\n\n    modifier canCreate(uint256 id) {\n        // project shouldn't be created already\n        require(Projects[id].createdTime == 0);\n        _;\n    }\n\n    modifier canSponsor(uint256 id, uint256 amount) {\n        // project exists && before 30 days && correct amount\n        require(Projects[id].createdTime != 0, \"This project doesn't exist.\");\n        require(Projects[id].createdTime + MONTH > block.timestamp, \"This project is out of date.\");\n        require(msg.value == amount, \"Incorrect amount of ether.\");\n        _;\n    }\n\n    modifier canWithdraw(uint256 id, uint256 amount, string memory description) {\n        // only project owner && after 30 days && has enough money in the project && non-empty description && correct amount\n        require(msg.sender == Projects[id].addr, \"Only this project's owner can withdraw the money.\");\n        require(Projects[id].createdTime + MONTH < block.timestamp, \"This project is still in sponsor phase.\");\n        require(amount <= Projects[id].currMoney, \"This project doesn't have enough money.\");\n        require(keccak256(bytes(description)) != keccak256(\"\"), \"To withdraw money, description should be provided.\");\n        require(msg.value == amount, \"Incorrect amount of ether.\");\n        _;\n    }\n\n    event createEvent(address addr, uint256 id, uint256 time);\n\n    event sponsorEvent(address from, uint256 to, uint256 amount);\n\n    event withdrawEvent(uint256 id, address to, uint256 amount, string description);\n\n    function create(uint256 id, uint256 time) canCreate(id) public {\n        Projects[id] = Project(msg.sender, time, 0);\n        emit createEvent(msg.sender, id, time);\n    }\n\n    function sponsor(uint256 id, uint256 amount) canSponsor(id, amount) payable public {\n        Projects[id].currMoney += amount;\n        emit sponsorEvent(msg.sender, id, amount);\n    }\n\n    function withdraw(uint256 id, uint256 amount, string memory description) canWithdraw(id, amount, description) payable public {\n        address payable sender = address(uint160(msg.sender));\n        sender.transfer(amount);\n        emit withdrawEvent(id, msg.sender, amount, description);\n    }\n}",
  "sourcePath": "D:/Side_Projects/DMooze-Smart-Contract/contracts/DMooze.sol",
  "compiler": {
    "name": "solc",
    "version": "0.5.16+commit.9c3226ce.Emscripten.clang"
  },
  "schemaVersion": "3.3.4",
  "updatedAt": "2021-05-20T02:03:22.070Z",
  "networkType": "ethereum",
  "devdoc": {
    "methods": {}
  },
  "userdoc": {
    "methods": {}
  }
}