{
  "contractName": "DMooze",
  "abi": [
    {
      "anonymous": false,
      "inputs": [
        {
          "indexed": false,
          "internalType": "address",
          "name": "addr",
          "type": "address"
        },
        {
          "indexed": false,
          "internalType": "string",
          "name": "id",
          "type": "string"
        },
        {
          "indexed": false,
          "internalType": "uint256",
          "name": "time",
          "type": "uint256"
        }
      ],
      "name": "createEvent",
      "type": "event"
    },
    {
      "anonymous": false,
      "inputs": [
        {
          "indexed": false,
          "internalType": "address",
          "name": "from",
          "type": "address"
        },
        {
          "indexed": false,
          "internalType": "string",
          "name": "to",
          "type": "string"
        },
        {
          "indexed": false,
          "internalType": "uint256",
          "name": "amount",
          "type": "uint256"
        }
      ],
      "name": "sponsorEvent",
      "type": "event"
    },
    {
      "anonymous": false,
      "inputs": [
        {
          "indexed": false,
          "internalType": "string",
          "name": "id",
          "type": "string"
        },
        {
          "indexed": false,
          "internalType": "address",
          "name": "to",
          "type": "address"
        },
        {
          "indexed": false,
          "internalType": "uint256",
          "name": "amount",
          "type": "uint256"
        },
        {
          "indexed": false,
          "internalType": "string",
          "name": "description",
          "type": "string"
        }
      ],
      "name": "withdrawEvent",
      "type": "event"
    },
    {
      "constant": true,
      "inputs": [
        {
          "internalType": "string",
          "name": "",
          "type": "string"
        }
      ],
      "name": "Projects",
      "outputs": [
        {
          "internalType": "address",
          "name": "addr",
          "type": "address"
        },
        {
          "internalType": "uint256",
          "name": "createdTime",
          "type": "uint256"
        },
        {
          "internalType": "uint256",
          "name": "currMoney",
          "type": "uint256"
        }
      ],
      "payable": false,
      "stateMutability": "view",
      "type": "function"
    },
    {
      "constant": false,
      "inputs": [
        {
          "internalType": "string",
          "name": "id",
          "type": "string"
        },
        {
          "internalType": "uint256",
          "name": "time",
          "type": "uint256"
        }
      ],
      "name": "create",
      "outputs": [],
      "payable": false,
      "stateMutability": "nonpayable",
      "type": "function"
    },
    {
      "constant": false,
      "inputs": [
        {
          "internalType": "string",
          "name": "id",
          "type": "string"
        },
        {
          "internalType": "uint256",
          "name": "amount",
          "type": "uint256"
        }
      ],
      "name": "sponsor",
      "outputs": [],
      "payable": true,
      "stateMutability": "payable",
      "type": "function"
    },
    {
      "constant": false,
      "inputs": [
        {
          "internalType": "string",
          "name": "id",
          "type": "string"
        },
        {
          "internalType": "uint256",
          "name": "amount",
          "type": "uint256"
        },
        {
          "internalType": "string",
          "name": "description",
          "type": "string"
        }
      ],
      "name": "withdraw",
      "outputs": [],
      "payable": true,
      "stateMutability": "payable",
      "type": "function"
    }
  ],
  "bytecode": "0x608060405262278d0060005534801561001757600080fd5b50611098806100276000396000f3fe60806040526004361061003f5760003560e01c806346f81a8714610044578063889d76d814610116578063905a864814610272578063c10d5bc914610388575b600080fd5b34801561005057600080fd5b506101146004803603604081101561006757600080fd5b810190808035906020019064010000000081111561008457600080fd5b82018360208201111561009657600080fd5b803590602001918460018302840111640100000000831117156100b857600080fd5b91908080601f016020809104026020016040519081016040528093929190818152602001838380828437600081840152601f19601f8201169050808301925050505050505091929192908035906020019092919050505061044d565b005b6102706004803603606081101561012c57600080fd5b810190808035906020019064010000000081111561014957600080fd5b82018360208201111561015b57600080fd5b8035906020019184600183028401116401000000008311171561017d57600080fd5b91908080601f016020809104026020016040519081016040528093929190818152602001838380828437600081840152601f19601f82011690508083019250505050505050919291929080359060200190929190803590602001906401000000008111156101ea57600080fd5b8201836020820111156101fc57600080fd5b8035906020019184600183028401116401000000008311171561021e57600080fd5b91908080601f016020809104026020016040519081016040528093929190818152602001838380828437600081840152601f19601f82011690508083019250505050505050919291929050505061069d565b005b34801561027e57600080fd5b506103386004803603602081101561029557600080fd5b81019080803590602001906401000000008111156102b257600080fd5b8201836020820111156102c457600080fd5b803590602001918460018302840111640100000000831117156102e657600080fd5b91908080601f016020809104026020016040519081016040528093929190818152602001838380828437600081840152601f19601f820116905080830192505050505050509192919290505050610bbb565b604051808473ffffffffffffffffffffffffffffffffffffffff1673ffffffffffffffffffffffffffffffffffffffff168152602001838152602001828152602001935050505060405180910390f35b61044b6004803603604081101561039e57600080fd5b81019080803590602001906401000000008111156103bb57600080fd5b8201836020820111156103cd57600080fd5b803590602001918460018302840111640100000000831117156103ef57600080fd5b91908080601f016020809104026020016040519081016040528093929190818152602001838380828437600081840152601f19601f82011690508083019250505050505050919291929080359060200190929190505050610c1b565b005b8160006001826040518082805190602001908083835b602083106104865780518252602082019150602081019050602083039250610463565b6001836020036101000a038019825116818451168082178552505050505050905001915050908152602001604051809103902060010154146104c757600080fd5b60405180606001604052803373ffffffffffffffffffffffffffffffffffffffff16815260200183815260200160008152506001846040518082805190602001908083835b6020831061052f578051825260208201915060208101905060208303925061050c565b6001836020036101000a038019825116818451168082178552505050505050905001915050908152602001604051809103902060008201518160000160006101000a81548173ffffffffffffffffffffffffffffffffffffffff021916908373ffffffffffffffffffffffffffffffffffffffff16021790555060208201518160010155604082015181600201559050507f88e25bda970000f1a67e95b81010a53342c36dfe022772b064a691faca6f5acc338484604051808473ffffffffffffffffffffffffffffffffffffffff1673ffffffffffffffffffffffffffffffffffffffff16815260200180602001838152602001828103825284818151815260200191508051906020019080838360005b8381101561065c578082015181840152602081019050610641565b50505050905090810190601f1680156106895780820380516001836020036101000a031916815260200191505b5094505050505060405180910390a1505050565b8282826001836040518082805190602001908083835b602083106106d657805182526020820191506020810190506020830392506106b3565b6001836020036101000a038019825116818451168082178552505050505050905001915050908152602001604051809103902060000160009054906101000a900473ffffffffffffffffffffffffffffffffffffffff1673ffffffffffffffffffffffffffffffffffffffff163373ffffffffffffffffffffffffffffffffffffffff16146107b0576040517f08c379a00000000000000000000000000000000000000000000000000000000081526004018080602001828103825260318152602001806110336031913960400191505060405180910390fd5b426000546001856040518082805190602001908083835b602083106107ea57805182526020820191506020810190506020830392506107c7565b6001836020036101000a0380198251168184511680821785525050505050509050019150509081526020016040518091039020600101540110610878576040517f08c379a0000000000000000000000000000000000000000000000000000000008152600401808060200182810382526027815260200180610fe56027913960400191505060405180910390fd5b6001836040518082805190602001908083835b602083106108ae578051825260208201915060208101905060208303925061088b565b6001836020036101000a03801982511681845116808217855250505050505090500191505090815260200160405180910390206002015482111561093d576040517f08c379a000000000000000000000000000000000000000000000000000000000815260040180806020018281038252602781526020018061100c6027913960400191505060405180910390fd5b6040518060000190506040518091039020818051906020012014156109ad576040517f08c379a0000000000000000000000000000000000000000000000000000000008152600401808060200182810382526032815260200180610fb36032913960400191505060405180910390fd5b3373ffffffffffffffffffffffffffffffffffffffff166108fc869081150290604051600060405180830381858888f193505050501580156109f3573d6000803e3d6000fd5b50846001876040518082805190602001908083835b60208310610a2b5780518252602082019150602081019050602083039250610a08565b6001836020036101000a0380198251168184511680821785525050505050509050019150509081526020016040518091039020600201600082825403925050819055507f69007f2f75c67d5ccb43704e34cf9220b1db43b2c5a50fd3310102eb410689e88633878760405180806020018573ffffffffffffffffffffffffffffffffffffffff1673ffffffffffffffffffffffffffffffffffffffff16815260200184815260200180602001838103835287818151815260200191508051906020019080838360005b83811015610b0f578082015181840152602081019050610af4565b50505050905090810190601f168015610b3c5780820380516001836020036101000a031916815260200191505b50838103825284818151815260200191508051906020019080838360005b83811015610b75578082015181840152602081019050610b5a565b50505050905090810190601f168015610ba25780820380516001836020036101000a031916815260200191505b50965050505050505060405180910390a1505050505050565b6001818051602081018201805184825260208301602085012081835280955050505050506000915090508060000160009054906101000a900473ffffffffffffffffffffffffffffffffffffffff16908060010154908060020154905083565b818160006001836040518082805190602001908083835b60208310610c555780518252602082019150602081019050602083039250610c32565b6001836020036101000a0380198251168184511680821785525050505050509050019150509081526020016040518091039020600101541415610d00576040517f08c379a000000000000000000000000000000000000000000000000000000000815260040180806020018281038252601b8152602001807f546869732070726f6a65637420646f65736e27742065786973742e000000000081525060200191505060405180910390fd5b426000546001846040518082805190602001908083835b60208310610d3a5780518252602082019150602081019050602083039250610d17565b6001836020036101000a0380198251168184511680821785525050505050509050019150509081526020016040518091039020600101540111610de5576040517f08c379a000000000000000000000000000000000000000000000000000000000815260040180806020018281038252601c8152602001807f546869732070726f6a656374206973206f7574206f6620646174652e0000000081525060200191505060405180910390fd5b803414610e5a576040517f08c379a000000000000000000000000000000000000000000000000000000000815260040180806020018281038252601a8152602001807f496e636f727265637420616d6f756e74206f662065746865722e00000000000081525060200191505060405180910390fd5b826001856040518082805190602001908083835b60208310610e915780518252602082019150602081019050602083039250610e6e565b6001836020036101000a0380198251168184511680821785525050505050509050019150509081526020016040518091039020600201600082825401925050819055507f8ed95776cbd6e2bed13a7f9efe0d37315a1ca268280abd4c684cac1ecb7d4f74338585604051808473ffffffffffffffffffffffffffffffffffffffff1673ffffffffffffffffffffffffffffffffffffffff16815260200180602001838152602001828103825284818151815260200191508051906020019080838360005b83811015610f70578082015181840152602081019050610f55565b50505050905090810190601f168015610f9d5780820380516001836020036101000a031916815260200191505b5094505050505060405180910390a15050505056fe546f207769746864726177206d6f6e65792c206465736372697074696f6e2073686f756c642062652070726f76696465642e546869732070726f6a656374206973207374696c6c20696e2073706f6e736f722070686173652e546869732070726f6a65637420646f65736e2774206861766520656e6f756768206d6f6e65792e4f6e6c7920746869732070726f6a6563742773206f776e65722063616e20776974686472617720746865206d6f6e65792ea265627a7a7231582019a2bde16b386f5518aecad29578eacd6a882e9a66a9c0860b948b006265518f64736f6c63430005100032",
  "source": "// SPDX-License-Identifier: GPL-3.0\r\n\r\npragma solidity >=0.4.22 <0.9.0;\r\n\r\ncontract DMooze {\r\n\r\n    uint256 MONTH = 86400 * 30;\r\n\r\n    struct Project {\r\n        address addr;\r\n        uint256 createdTime;\r\n        uint256 currMoney;\r\n    }\r\n\r\n    mapping(string => Project) public Projects;\r\n\r\n    modifier canCreate(string memory id) {\r\n        // project shouldn't be created already\r\n        require(Projects[id].createdTime == 0);\r\n        _;\r\n    }\r\n\r\n    modifier canSponsor(string memory id, uint256 amount) {\r\n        // project exists && before 30 days && correct amount\r\n        require(Projects[id].createdTime != 0, \"This project doesn't exist.\");\r\n        require(Projects[id].createdTime + MONTH > block.timestamp, \"This project is out of date.\");\r\n        require(msg.value == amount, \"Incorrect amount of ether.\");\r\n        _;\r\n    }\r\n\r\n    modifier canWithdraw(string memory id, uint256 amount, string memory description) {\r\n        // only project owner && after 30 days && has enough money in the project && non-empty description\r\n        require(msg.sender == Projects[id].addr, \"Only this project's owner can withdraw the money.\");\r\n        require(Projects[id].createdTime + MONTH < block.timestamp, \"This project is still in sponsor phase.\");\r\n        require(amount <= Projects[id].currMoney, \"This project doesn't have enough money.\");\r\n        require(keccak256(bytes(description)) != keccak256(\"\"), \"To withdraw money, description should be provided.\");\r\n        _;\r\n    }\r\n\r\n    event createEvent(address addr, string id, uint256 time);\r\n\r\n    event sponsorEvent(address from, string to, uint256 amount);\r\n\r\n    event withdrawEvent(string id, address to, uint256 amount, string description);\r\n\r\n    function create(string memory id, uint256 time) canCreate(id) public {\r\n        Projects[id] = Project(msg.sender, time, 0);\r\n        emit createEvent(msg.sender, id, time);\r\n    }\r\n\r\n    function sponsor(string memory id, uint256 amount) canSponsor(id, amount) payable public {\r\n        Projects[id].currMoney += amount;\r\n        emit sponsorEvent(msg.sender, id, amount);\r\n    }\r\n\r\n    function withdraw(string memory id, uint256 amount, string memory description) canWithdraw(id, amount, description) payable public {\r\n        msg.sender.transfer(amount);\r\n        Projects[id].currMoney -= amount;\r\n        emit withdrawEvent(id, msg.sender, amount, description);\r\n    }\r\n}",
  "sourcePath": "D:/Side_Projects/DMooze-Smart-Contract/contracts/DMooze.sol",
  "compiler": {
    "name": "solc",
    "version": "0.5.16+commit.9c3226ce.Emscripten.clang"
  },
  "schemaVersion": "3.3.4",
  "updatedAt": "2021-05-20T12:13:18.492Z",
  "networkType": "ethereum",
  "devdoc": {
    "methods": {}
  },
  "userdoc": {
    "methods": {}
  }
}